S024000067626572733030325F627A68616E3031345F6C6162365F70617274322E7372656348
S113000045C0000060C000005EC000005CC000008D
S11300105AC0000058C0000056C0000054C0000080
S113002052C0000050C000004EC000004CC0000090
S11300304AC00000C6C0000046C0000044C0000022
S113004042C0000040C000003EC000003CC00000B0
S11300503AC0000038C0000036C0000034C00000C0
S113006032C0000030C000002EC000002CC00000D0
S11300702AC0000028C0000026C0000024C00000E0
S113008022C0000020C000001EC0000011241FBEBA
S1130090CFEFD0E4DEBFCDBF11E0A0E0B1E0E0EEF1
S11300A0F2E000E00BBF02C007900D92A430B1074C
S11300B0D9F721E0A4E0B1E001C01D92AD30B20750
S11300C0E1F7DED00BC19CCF80910401811104C003
S11300D081E0809304010895813011F410920401A9
S11300E0089580910B01882319F0813029F013C001
S11300F081E080930B0111C080B191E0282F217021
S113010080FD90E090930501211101C0DDDF81E0C5
S113011080930B0102C0813071F480B191E0282FEB
S1130120217080FD90E090930501211101C0CCDF86
S113013080910C0185B908958BE0809381008DE74F
S113014090E0909389008093880082E080936F0010
S11301501092850010928400809100019091010119
S1130160A0910201B09103018093070190930801CB
S1130170A0930901B0930A018FB780688FBF0895D7
S11301808091040181111CC080910601811114C069
S113019080910C01880F80930C01883089F481E0F0
S11301A08093060180910C01869580930C01813027
S11301B039F410920601089580910601813091F37B
S11301C008951F920F920FB60F9211240BB60F923F
S11301D02F933F934F935F936F937F938F939F934B
S11301E0AF93BF93EF93FF93809107019091080120
S11301F0A0910901B0910A010197A109B109809365
S1130200070190930801A0930901B0930A01892B77
S11302108A2B8B2B89F4B4DF80910001909101012A
S1130220A0910201B091030180930701909308010A
S1130230A0930901B0930A01FF91EF91BF91AF918F
S11302409F918F917F916F915F914F913F912F91EA
S11302500F900BBE0F900FBE0F901F9018956093D8
S11302600001709301018093020190930301609354
S11302700701709308018093090190930A0108957E
S113028011B88FEF82B984B915B810920B0181E0CF
S113029080930C016CE271E080E090E0E0DF4CDFE1
S11302A0C1E0D0E080B19C2F282F217080FD9D2FCC
S11302B090930501211101C007DF80910401811190
S11302C001C00FDF80B19C2F282F217080FD9D2F4E
S11302D0909305012111E6CFF7DEE4CFF894FFCF28
S10702E00100000015
S9030000FC
